{
  "_format": "hh-sol-artifact-1",
  "contractName": "DEXFacet",
  "sourceName": "contracts/facets/DEXFacet.sol",
  "abi": [
    {
      "anonymous": false,
      "inputs": [
        {
          "indexed": false,
          "internalType": "uint256",
          "name": "listingId",
          "type": "uint256"
        },
        {
          "indexed": false,
          "internalType": "address",
          "name": "seller",
          "type": "address"
        },
        {
          "indexed": false,
          "internalType": "address",
          "name": "token",
          "type": "address"
        },
        {
          "indexed": false,
          "internalType": "uint256",
          "name": "tokenId",
          "type": "uint256"
        },
        {
          "indexed": false,
          "internalType": "uint256",
          "name": "price",
          "type": "uint256"
        }
      ],
      "name": "Listed",
      "type": "event"
    },
    {
      "anonymous": false,
      "inputs": [
        {
          "indexed": false,
          "internalType": "uint256",
          "name": "listingId",
          "type": "uint256"
        },
        {
          "indexed": false,
          "internalType": "address",
          "name": "buyer",
          "type": "address"
        },
        {
          "indexed": false,
          "internalType": "address",
          "name": "token",
          "type": "address"
        },
        {
          "indexed": false,
          "internalType": "uint256",
          "name": "tokenId",
          "type": "uint256"
        },
        {
          "indexed": false,
          "internalType": "uint256",
          "name": "price",
          "type": "uint256"
        }
      ],
      "name": "Sale",
      "type": "event"
    },
    {
      "inputs": [
        {
          "internalType": "uint256",
          "name": "listingId",
          "type": "uint256"
        }
      ],
      "name": "buyTicket",
      "outputs": [],
      "stateMutability": "payable",
      "type": "function"
    },
    {
      "inputs": [
        {
          "internalType": "uint256",
          "name": "listingId",
          "type": "uint256"
        }
      ],
      "name": "getListing",
      "outputs": [
        {
          "components": [
            {
              "internalType": "enum ListingStatus",
              "name": "status",
              "type": "uint8"
            },
            {
              "internalType": "address",
              "name": "seller",
              "type": "address"
            },
            {
              "internalType": "address",
              "name": "token",
              "type": "address"
            },
            {
              "internalType": "uint256",
              "name": "tokenId",
              "type": "uint256"
            },
            {
              "internalType": "uint256",
              "name": "price",
              "type": "uint256"
            }
          ],
          "internalType": "struct Listing",
          "name": "",
          "type": "tuple"
        }
      ],
      "stateMutability": "view",
      "type": "function"
    },
    {
      "inputs": [],
      "name": "getListingsCount",
      "outputs": [
        {
          "internalType": "uint256",
          "name": "",
          "type": "uint256"
        }
      ],
      "stateMutability": "view",
      "type": "function"
    },
    {
      "inputs": [
        {
          "internalType": "address",
          "name": "token",
          "type": "address"
        },
        {
          "internalType": "uint256",
          "name": "tokenId",
          "type": "uint256"
        },
        {
          "internalType": "uint256",
          "name": "amount",
          "type": "uint256"
        },
        {
          "internalType": "uint256",
          "name": "price",
          "type": "uint256"
        }
      ],
      "name": "listTicket",
      "outputs": [],
      "stateMutability": "nonpayable",
      "type": "function"
    },
    {
      "inputs": [
        {
          "internalType": "address",
          "name": "",
          "type": "address"
        },
        {
          "internalType": "address",
          "name": "",
          "type": "address"
        },
        {
          "internalType": "uint256[]",
          "name": "",
          "type": "uint256[]"
        },
        {
          "internalType": "uint256[]",
          "name": "",
          "type": "uint256[]"
        },
        {
          "internalType": "bytes",
          "name": "",
          "type": "bytes"
        }
      ],
      "name": "onERC1155BatchReceived",
      "outputs": [
        {
          "internalType": "bytes4",
          "name": "",
          "type": "bytes4"
        }
      ],
      "stateMutability": "nonpayable",
      "type": "function"
    },
    {
      "inputs": [
        {
          "internalType": "address",
          "name": "",
          "type": "address"
        },
        {
          "internalType": "address",
          "name": "",
          "type": "address"
        },
        {
          "internalType": "uint256",
          "name": "",
          "type": "uint256"
        },
        {
          "internalType": "uint256",
          "name": "",
          "type": "uint256"
        },
        {
          "internalType": "bytes",
          "name": "",
          "type": "bytes"
        }
      ],
      "name": "onERC1155Received",
      "outputs": [
        {
          "internalType": "bytes4",
          "name": "",
          "type": "bytes4"
        }
      ],
      "stateMutability": "nonpayable",
      "type": "function"
    },
    {
      "inputs": [
        {
          "internalType": "bytes4",
          "name": "interfaceId",
          "type": "bytes4"
        }
      ],
      "name": "supportsInterface",
      "outputs": [
        {
          "internalType": "bool",
          "name": "",
          "type": "bool"
        }
      ],
      "stateMutability": "view",
      "type": "function"
    }
  ],
  "bytecode": "0x608060405234801561001057600080fd5b50611432806100206000396000f3fe6080604052600436106100705760003560e01c8063821029981161004e578063821029981461010b578063bc197c8114610134578063cbaa068f14610171578063f23a6e611461019c57610070565b806301ffc9a714610075578063107a274a146100b257806367dd74ca146100ef575b600080fd5b34801561008157600080fd5b5061009c60048036038101906100979190610d01565b6101d9565b6040516100a99190610f77565b60405180910390f35b3480156100be57600080fd5b506100d960048036038101906100d49190610d2e565b610253565b6040516100e6919061100d565b60405180910390f35b61010960048036038101906101049190610d2e565b61037e565b005b34801561011757600080fd5b50610132600480360381019061012d9190610c9a565b61068e565b005b34801561014057600080fd5b5061015b60048036038101906101569190610b34565b6108da565b6040516101689190610f92565b60405180910390f35b34801561017d57600080fd5b506101866108ef565b6040516101939190611028565b60405180910390f35b3480156101a857600080fd5b506101c360048036038101906101be9190610c03565b6108fb565b6040516101d09190610f92565b60405180910390f35b60007f4e2312e0000000000000000000000000000000000000000000000000000000007bffffffffffffffffffffffffffffffffffffffffffffffffffffffff1916827bffffffffffffffffffffffffffffffffffffffffffffffffffffffff1916148061024c575061024b82610910565b5b9050919050565b61025b61097a565b6000600b0160008381526020019081526020016000206040518060a00160405290816000820160009054906101000a900460ff1660028111156102a1576102a061129d565b5b60028111156102b3576102b261129d565b5b81526020016000820160019054906101000a900473ffffffffffffffffffffffffffffffffffffffff1673ffffffffffffffffffffffffffffffffffffffff1673ffffffffffffffffffffffffffffffffffffffff1681526020016001820160009054906101000a900473ffffffffffffffffffffffffffffffffffffffff1673ffffffffffffffffffffffffffffffffffffffff1673ffffffffffffffffffffffffffffffffffffffff168152602001600282015481526020016003820154815250509050919050565b600080600b01600083815260200190815260200160002090508060000160019054906101000a900473ffffffffffffffffffffffffffffffffffffffff1673ffffffffffffffffffffffffffffffffffffffff163373ffffffffffffffffffffffffffffffffffffffff16141561042a576040517f08c379a000000000000000000000000000000000000000000000000000000000815260040161042190610fad565b60405180910390fd5b6000600281111561043e5761043d61129d565b5b8160000160009054906101000a900460ff1660028111156104625761046161129d565b5b146104a2576040517f08c379a000000000000000000000000000000000000000000000000000000000815260040161049990610fcd565b60405180910390fd5b80600301543410156104e9576040517f08c379a00000000000000000000000000000000000000000000000000000000081526004016104e090610fed565b60405180910390fd5b60018160000160006101000a81548160ff021916908360028111156105115761051061129d565b5b02179055508060010160009054906101000a900473ffffffffffffffffffffffffffffffffffffffff1673ffffffffffffffffffffffffffffffffffffffff1663f242432a3033846002015460016040518563ffffffff1660e01b815260040161057e9493929190610ec7565b600060405180830381600087803b15801561059857600080fd5b505af11580156105ac573d6000803e3d6000fd5b505050508060000160019054906101000a900473ffffffffffffffffffffffffffffffffffffffff1673ffffffffffffffffffffffffffffffffffffffff166108fc82600301549081150290604051600060405180830381858888f1935050505015801561061e573d6000803e3d6000fd5b507ff3debaf22196a6ddf52a60fa71058cd7edf5e25bb98f4e96c994a5d4a9b0dd3e82338360010160009054906101000a900473ffffffffffffffffffffffffffffffffffffffff1684600201548560030154604051610682959493929190611043565b60405180910390a15050565b8373ffffffffffffffffffffffffffffffffffffffff1663f242432a333086866040518563ffffffff1660e01b81526004016106cd9493929190610f1f565b600060405180830381600087803b1580156106e757600080fd5b505af11580156106fb573d6000803e3d6000fd5b5050505060006040518060a00160405280600060028111156107205761071f61129d565b5b81526020013373ffffffffffffffffffffffffffffffffffffffff1681526020018673ffffffffffffffffffffffffffffffffffffffff1681526020018581526020018381525090506000600901600081548092919061077f90611225565b91905055506000600a01600081548092919061079a90611225565b9190505550806000600b0160008060090154815260200190815260200160002060008201518160000160006101000a81548160ff021916908360028111156107e5576107e461129d565b5b021790555060208201518160000160016101000a81548173ffffffffffffffffffffffffffffffffffffffff021916908373ffffffffffffffffffffffffffffffffffffffff16021790555060408201518160010160006101000a81548173ffffffffffffffffffffffffffffffffffffffff021916908373ffffffffffffffffffffffffffffffffffffffff16021790555060608201518160020155608082015181600301559050507f723f73331eaee88eec7fc68ef60ab6ed15e4b90d0472b55eb92fa43910bab6dd600060090154338787866040516108cb959493929190611043565b60405180910390a15050505050565b600063bc197c8160e01b905095945050505050565b600080600a0154905090565b600063f23a6e6160e01b905095945050505050565b60007f01ffc9a7000000000000000000000000000000000000000000000000000000007bffffffffffffffffffffffffffffffffffffffffffffffffffffffff1916827bffffffffffffffffffffffffffffffffffffffffffffffffffffffff1916149050919050565b6040518060a00160405280600060028111156109995761099861129d565b5b8152602001600073ffffffffffffffffffffffffffffffffffffffff168152602001600073ffffffffffffffffffffffffffffffffffffffff16815260200160008152602001600081525090565b60006109fa6109f5846110bb565b611096565b90508083825260208201905082856020860282011115610a1d57610a1c611300565b5b60005b85811015610a4d5781610a338882610b1f565b845260208401935060208301925050600181019050610a20565b5050509392505050565b6000610a6a610a65846110e7565b611096565b905082815260208101848484011115610a8657610a85611305565b5b610a918482856111e5565b509392505050565b600081359050610aa8816113b7565b92915050565b600082601f830112610ac357610ac26112fb565b5b8135610ad38482602086016109e7565b91505092915050565b600081359050610aeb816113ce565b92915050565b600082601f830112610b0657610b056112fb565b5b8135610b16848260208601610a57565b91505092915050565b600081359050610b2e816113e5565b92915050565b600080600080600060a08688031215610b5057610b4f61130f565b5b6000610b5e88828901610a99565b9550506020610b6f88828901610a99565b945050604086013567ffffffffffffffff811115610b9057610b8f61130a565b5b610b9c88828901610aae565b935050606086013567ffffffffffffffff811115610bbd57610bbc61130a565b5b610bc988828901610aae565b925050608086013567ffffffffffffffff811115610bea57610be961130a565b5b610bf688828901610af1565b9150509295509295909350565b600080600080600060a08688031215610c1f57610c1e61130f565b5b6000610c2d88828901610a99565b9550506020610c3e88828901610a99565b9450506040610c4f88828901610b1f565b9350506060610c6088828901610b1f565b925050608086013567ffffffffffffffff811115610c8157610c8061130a565b5b610c8d88828901610af1565b9150509295509295909350565b60008060008060808587031215610cb457610cb361130f565b5b6000610cc287828801610a99565b9450506020610cd387828801610b1f565b9350506040610ce487828801610b1f565b9250506060610cf587828801610b1f565b91505092959194509250565b600060208284031215610d1757610d1661130f565b5b6000610d2584828501610adc565b91505092915050565b600060208284031215610d4457610d4361130f565b5b6000610d5284828501610b1f565b91505092915050565b610d648161113a565b82525050565b610d738161113a565b82525050565b610d828161114c565b82525050565b610d9181611158565b82525050565b610da0816111c1565b82525050565b610daf816111d3565b82525050565b6000610dc2601683611129565b9150610dcd82611325565b602082019050919050565b6000610de5601583611129565b9150610df08261134e565b602082019050919050565b6000610e08601483611129565b9150610e1382611377565b602082019050919050565b6000610e2b600083611118565b9150610e36826113a0565b600082019050919050565b60a082016000820151610e576000850182610d97565b506020820151610e6a6020850182610d5b565b506040820151610e7d6040850182610d5b565b506060820151610e906060850182610ea9565b506080820151610ea36080850182610ea9565b50505050565b610eb2816111b7565b82525050565b610ec1816111b7565b82525050565b600060a082019050610edc6000830187610d6a565b610ee96020830186610d6a565b610ef66040830185610eb8565b610f036060830184610da6565b8181036080830152610f1481610e1e565b905095945050505050565b600060a082019050610f346000830187610d6a565b610f416020830186610d6a565b610f4e6040830185610eb8565b610f5b6060830184610eb8565b8181036080830152610f6c81610e1e565b905095945050505050565b6000602082019050610f8c6000830184610d79565b92915050565b6000602082019050610fa76000830184610d88565b92915050565b60006020820190508181036000830152610fc681610db5565b9050919050565b60006020820190508181036000830152610fe681610dd8565b9050919050565b6000602082019050818103600083015261100681610dfb565b9050919050565b600060a0820190506110226000830184610e41565b92915050565b600060208201905061103d6000830184610eb8565b92915050565b600060a0820190506110586000830188610eb8565b6110656020830187610d6a565b6110726040830186610d6a565b61107f6060830185610eb8565b61108c6080830184610eb8565b9695505050505050565b60006110a06110b1565b90506110ac82826111f4565b919050565b6000604051905090565b600067ffffffffffffffff8211156110d6576110d56112cc565b5b602082029050602081019050919050565b600067ffffffffffffffff821115611102576111016112cc565b5b61110b82611314565b9050602081019050919050565b600082825260208201905092915050565b600082825260208201905092915050565b600061114582611197565b9050919050565b60008115159050919050565b60007fffffffff0000000000000000000000000000000000000000000000000000000082169050919050565b6000819050611192826113a3565b919050565b600073ffffffffffffffffffffffffffffffffffffffff82169050919050565b6000819050919050565b60006111cc82611184565b9050919050565b60006111de826111b7565b9050919050565b82818337600083830152505050565b6111fd82611314565b810181811067ffffffffffffffff8211171561121c5761121b6112cc565b5b80604052505050565b6000611230826111b7565b91507fffffffffffffffffffffffffffffffffffffffffffffffffffffffffffffffff8214156112635761126261126e565b5b600182019050919050565b7f4e487b7100000000000000000000000000000000000000000000000000000000600052601160045260246000fd5b7f4e487b7100000000000000000000000000000000000000000000000000000000600052602160045260246000fd5b7f4e487b7100000000000000000000000000000000000000000000000000000000600052604160045260246000fd5b600080fd5b600080fd5b600080fd5b600080fd5b600080fd5b6000601f19601f8301169050919050565b7f53656c6c65722063616e6e6f7420626520627579657200000000000000000000600082015250565b7f4c697374696e67206973206e6f74206163746976650000000000000000000000600082015250565b7f496e73756666696369656e74207061796d656e74000000000000000000000000600082015250565b50565b600381106113b4576113b361129d565b5b50565b6113c08161113a565b81146113cb57600080fd5b50565b6113d781611158565b81146113e257600080fd5b50565b6113ee816111b7565b81146113f957600080fd5b5056fea264697066735822122020e72fb740d9050f6e114926f26c8907c3bed77ef56c77005b7cc3dd9a55fc5564736f6c63430008060033",
  "linkReferences": {},
  "deployedLinkReferences": {}
}