{
  "_format": "hh-sol-artifact-1",
  "contractName": "EventManagerFacet",
  "sourceName": "contracts/facets/EventManagerFacet.sol",
  "abi": [
    {
      "inputs": [],
      "stateMutability": "nonpayable",
      "type": "constructor"
    },
    {
      "anonymous": false,
      "inputs": [
        {
          "indexed": true,
          "internalType": "address",
          "name": "account",
          "type": "address"
        },
        {
          "indexed": true,
          "internalType": "address",
          "name": "operator",
          "type": "address"
        },
        {
          "indexed": false,
          "internalType": "bool",
          "name": "approved",
          "type": "bool"
        }
      ],
      "name": "ApprovalForAll",
      "type": "event"
    },
    {
      "anonymous": false,
      "inputs": [
        {
          "indexed": false,
          "internalType": "address",
          "name": "buyer",
          "type": "address"
        }
      ],
      "name": "BoughtTickets",
      "type": "event"
    },
    {
      "anonymous": false,
      "inputs": [
        {
          "indexed": false,
          "internalType": "uint256",
          "name": "eventId",
          "type": "uint256"
        }
      ],
      "name": "EventCreated",
      "type": "event"
    },
    {
      "anonymous": false,
      "inputs": [
        {
          "indexed": false,
          "internalType": "address",
          "name": "something",
          "type": "address"
        }
      ],
      "name": "TestEvent",
      "type": "event"
    },
    {
      "anonymous": false,
      "inputs": [
        {
          "indexed": true,
          "internalType": "address",
          "name": "operator",
          "type": "address"
        },
        {
          "indexed": true,
          "internalType": "address",
          "name": "from",
          "type": "address"
        },
        {
          "indexed": true,
          "internalType": "address",
          "name": "to",
          "type": "address"
        },
        {
          "indexed": false,
          "internalType": "uint256[]",
          "name": "ids",
          "type": "uint256[]"
        },
        {
          "indexed": false,
          "internalType": "uint256[]",
          "name": "values",
          "type": "uint256[]"
        }
      ],
      "name": "TransferBatch",
      "type": "event"
    },
    {
      "anonymous": false,
      "inputs": [
        {
          "indexed": true,
          "internalType": "address",
          "name": "operator",
          "type": "address"
        },
        {
          "indexed": true,
          "internalType": "address",
          "name": "from",
          "type": "address"
        },
        {
          "indexed": true,
          "internalType": "address",
          "name": "to",
          "type": "address"
        },
        {
          "indexed": false,
          "internalType": "uint256",
          "name": "id",
          "type": "uint256"
        },
        {
          "indexed": false,
          "internalType": "uint256",
          "name": "value",
          "type": "uint256"
        }
      ],
      "name": "TransferSingle",
      "type": "event"
    },
    {
      "anonymous": false,
      "inputs": [
        {
          "indexed": false,
          "internalType": "string",
          "name": "value",
          "type": "string"
        },
        {
          "indexed": true,
          "internalType": "uint256",
          "name": "id",
          "type": "uint256"
        }
      ],
      "name": "URI",
      "type": "event"
    },
    {
      "inputs": [
        {
          "internalType": "uint256",
          "name": "eventId",
          "type": "uint256"
        },
        {
          "internalType": "address",
          "name": "to",
          "type": "address"
        },
        {
          "internalType": "uint256[]",
          "name": "amounts",
          "type": "uint256[]"
        },
        {
          "internalType": "uint256[]",
          "name": "prices",
          "type": "uint256[]"
        }
      ],
      "name": "addTickets",
      "outputs": [],
      "stateMutability": "nonpayable",
      "type": "function"
    },
    {
      "inputs": [
        {
          "internalType": "address",
          "name": "account",
          "type": "address"
        },
        {
          "internalType": "uint256",
          "name": "id",
          "type": "uint256"
        }
      ],
      "name": "balanceOf",
      "outputs": [
        {
          "internalType": "uint256",
          "name": "",
          "type": "uint256"
        }
      ],
      "stateMutability": "view",
      "type": "function"
    },
    {
      "inputs": [
        {
          "internalType": "address[]",
          "name": "accounts",
          "type": "address[]"
        },
        {
          "internalType": "uint256[]",
          "name": "ids",
          "type": "uint256[]"
        }
      ],
      "name": "balanceOfBatch",
      "outputs": [
        {
          "internalType": "uint256[]",
          "name": "",
          "type": "uint256[]"
        }
      ],
      "stateMutability": "view",
      "type": "function"
    },
    {
      "inputs": [
        {
          "internalType": "uint256[]",
          "name": "ticketIds",
          "type": "uint256[]"
        },
        {
          "internalType": "uint256[]",
          "name": "amounts",
          "type": "uint256[]"
        },
        {
          "internalType": "uint256[]",
          "name": "prices",
          "type": "uint256[]"
        }
      ],
      "name": "buyTickets",
      "outputs": [],
      "stateMutability": "payable",
      "type": "function"
    },
    {
      "inputs": [
        {
          "internalType": "address",
          "name": "to",
          "type": "address"
        },
        {
          "internalType": "string",
          "name": "eventHash",
          "type": "string"
        },
        {
          "internalType": "string[]",
          "name": "ticketHashes",
          "type": "string[]"
        },
        {
          "internalType": "uint256[]",
          "name": "amounts",
          "type": "uint256[]"
        },
        {
          "internalType": "uint256[]",
          "name": "prices",
          "type": "uint256[]"
        }
      ],
      "name": "createEvent",
      "outputs": [],
      "stateMutability": "nonpayable",
      "type": "function"
    },
    {
      "inputs": [
        {
          "internalType": "uint256",
          "name": "eventId",
          "type": "uint256"
        },
        {
          "internalType": "string",
          "name": "ipfsHash",
          "type": "string"
        }
      ],
      "name": "editInfo",
      "outputs": [],
      "stateMutability": "nonpayable",
      "type": "function"
    },
    {
      "inputs": [],
      "name": "getCounter",
      "outputs": [
        {
          "internalType": "uint256",
          "name": "",
          "type": "uint256"
        }
      ],
      "stateMutability": "view",
      "type": "function"
    },
    {
      "inputs": [
        {
          "internalType": "uint256",
          "name": "index",
          "type": "uint256"
        }
      ],
      "name": "getEventId",
      "outputs": [
        {
          "internalType": "uint256",
          "name": "",
          "type": "uint256"
        }
      ],
      "stateMutability": "view",
      "type": "function"
    },
    {
      "inputs": [
        {
          "internalType": "uint256",
          "name": "eventId",
          "type": "uint256"
        },
        {
          "internalType": "uint256",
          "name": "ticketId",
          "type": "uint256"
        }
      ],
      "name": "getEventInfo",
      "outputs": [
        {
          "internalType": "uint256",
          "name": "",
          "type": "uint256"
        }
      ],
      "stateMutability": "view",
      "type": "function"
    },
    {
      "inputs": [
        {
          "internalType": "uint256",
          "name": "eventId",
          "type": "uint256"
        }
      ],
      "name": "getEventTickets",
      "outputs": [
        {
          "internalType": "uint256[]",
          "name": "",
          "type": "uint256[]"
        },
        {
          "internalType": "uint256[]",
          "name": "",
          "type": "uint256[]"
        },
        {
          "internalType": "uint256[]",
          "name": "",
          "type": "uint256[]"
        },
        {
          "internalType": "bool[]",
          "name": "",
          "type": "bool[]"
        }
      ],
      "stateMutability": "view",
      "type": "function"
    },
    {
      "inputs": [],
      "name": "getEventsCount",
      "outputs": [
        {
          "internalType": "uint256",
          "name": "",
          "type": "uint256"
        }
      ],
      "stateMutability": "view",
      "type": "function"
    },
    {
      "inputs": [
        {
          "internalType": "uint256",
          "name": "index",
          "type": "uint256"
        }
      ],
      "name": "getTicketId",
      "outputs": [
        {
          "internalType": "uint256",
          "name": "",
          "type": "uint256"
        }
      ],
      "stateMutability": "view",
      "type": "function"
    },
    {
      "inputs": [
        {
          "internalType": "uint256",
          "name": "ticketId",
          "type": "uint256"
        }
      ],
      "name": "getTicketInfo",
      "outputs": [
        {
          "internalType": "uint256",
          "name": "",
          "type": "uint256"
        },
        {
          "internalType": "uint256",
          "name": "",
          "type": "uint256"
        },
        {
          "internalType": "uint256",
          "name": "",
          "type": "uint256"
        }
      ],
      "stateMutability": "view",
      "type": "function"
    },
    {
      "inputs": [],
      "name": "getTicketsCount",
      "outputs": [
        {
          "internalType": "uint256",
          "name": "",
          "type": "uint256"
        }
      ],
      "stateMutability": "view",
      "type": "function"
    },
    {
      "inputs": [
        {
          "internalType": "address",
          "name": "account",
          "type": "address"
        },
        {
          "internalType": "address",
          "name": "operator",
          "type": "address"
        }
      ],
      "name": "isApprovedForAll",
      "outputs": [
        {
          "internalType": "bool",
          "name": "",
          "type": "bool"
        }
      ],
      "stateMutability": "view",
      "type": "function"
    },
    {
      "inputs": [
        {
          "internalType": "address",
          "name": "from",
          "type": "address"
        },
        {
          "internalType": "address",
          "name": "to",
          "type": "address"
        },
        {
          "internalType": "uint256[]",
          "name": "ids",
          "type": "uint256[]"
        },
        {
          "internalType": "uint256[]",
          "name": "amounts",
          "type": "uint256[]"
        },
        {
          "internalType": "bytes",
          "name": "data",
          "type": "bytes"
        }
      ],
      "name": "safeBatchTransferFrom",
      "outputs": [],
      "stateMutability": "nonpayable",
      "type": "function"
    },
    {
      "inputs": [
        {
          "internalType": "address",
          "name": "from",
          "type": "address"
        },
        {
          "internalType": "address",
          "name": "to",
          "type": "address"
        },
        {
          "internalType": "uint256",
          "name": "id",
          "type": "uint256"
        },
        {
          "internalType": "uint256",
          "name": "amount",
          "type": "uint256"
        },
        {
          "internalType": "bytes",
          "name": "data",
          "type": "bytes"
        }
      ],
      "name": "safeTransferFrom",
      "outputs": [],
      "stateMutability": "nonpayable",
      "type": "function"
    },
    {
      "inputs": [
        {
          "internalType": "address",
          "name": "operator",
          "type": "address"
        },
        {
          "internalType": "bool",
          "name": "approved",
          "type": "bool"
        }
      ],
      "name": "setApprovalForAll",
      "outputs": [],
      "stateMutability": "nonpayable",
      "type": "function"
    },
    {
      "inputs": [
        {
          "internalType": "bytes4",
          "name": "interfaceId",
          "type": "bytes4"
        }
      ],
      "name": "supportsInterface",
      "outputs": [
        {
          "internalType": "bool",
          "name": "",
          "type": "bool"
        }
      ],
      "stateMutability": "view",
      "type": "function"
    },
    {
      "inputs": [
        {
          "internalType": "uint256",
          "name": "id",
          "type": "uint256"
        }
      ],
      "name": "uri",
      "outputs": [
        {
          "internalType": "string",
          "name": "",
          "type": "string"
        }
      ],
      "stateMutability": "view",
      "type": "function"
    }
  ],
  "bytecode": "0x60806040523480156200001157600080fd5b5060405180606001604052806027815260200162004566602791396200003d816200004460201b60201c565b5062000175565b80600290805190602001906200005c92919062000060565b5050565b8280546200006e9062000110565b90600052602060002090601f016020900481019282620000925760008555620000de565b82601f10620000ad57805160ff1916838001178555620000de565b82800160010185558215620000de579182015b82811115620000dd578251825591602001919060010190620000c0565b5b509050620000ed9190620000f1565b5090565b5b808211156200010c576000816000905550600101620000f2565b5090565b600060028204905060018216806200012957607f821691505b6020821081141562000140576200013f62000146565b5b50919050565b7f4e487b7100000000000000000000000000000000000000000000000000000000600052602260045260246000fd5b6143e180620001856000396000f3fe60806040526004361061011e5760003560e01c80638ada066e116100a0578063dba4a8df11610064578063dba4a8df14610412578063e985e9c51461044f578063ecf7ab401461048c578063f242432a146104b5578063ff99a063146104de5761011e565b80638ada066e14610318578063a22cb46514610343578063c0f725bc1461036c578063c3be559b14610395578063ca261ce1146103d25761011e565b806330366d5f116100e757806330366d5f1461022e5780633f339852146102595780634e1273f4146102755780636b0512ac146102b25780637f409dab146102db5761011e565b8062fdd58e1461012357806301ffc9a714610160578063080b2a861461019d5780630e89341c146101c85780632eb2c2d614610205575b600080fd5b34801561012f57600080fd5b5061014a60048036038101906101459190612f14565b61051d565b6040516101579190613999565b60405180910390f35b34801561016c57600080fd5b5061018760048036038101906101829190613073565b6105e6565b60405161019491906137bc565b60405180910390f35b3480156101a957600080fd5b506101b26106c8565b6040516101bf9190613999565b60405180910390f35b3480156101d457600080fd5b506101ef60048036038101906101ea91906130cd565b6106d5565b6040516101fc91906137d7565b60405180910390f35b34801561021157600080fd5b5061022c60048036038101906102279190612c83565b61077d565b005b34801561023a57600080fd5b5061024361081e565b6040516102509190613999565b60405180910390f35b610273600480360381019061026e9190612fcc565b61082b565b005b34801561028157600080fd5b5061029c60048036038101906102979190612f54565b610be9565b6040516102a99190613702565b60405180910390f35b3480156102be57600080fd5b506102d960048036038101906102d49190612e29565b610d02565b005b3480156102e757600080fd5b5061030260048036038101906102fd91906131f5565b611190565b60405161030f9190613999565b60405180910390f35b34801561032457600080fd5b5061032d6111c8565b60405161033a9190613999565b60405180910390f35b34801561034f57600080fd5b5061036a60048036038101906103659190612de9565b6111d5565b005b34801561037857600080fd5b50610393600480360381019061038e9190613199565b6111eb565b005b3480156103a157600080fd5b506103bc60048036038101906103b791906130cd565b61126c565b6040516103c99190613999565b60405180910390f35b3480156103de57600080fd5b506103f960048036038101906103f491906130cd565b611297565b604051610409949392919061375b565b60405180910390f35b34801561041e57600080fd5b50610439600480360381019061043491906130cd565b611502565b6040516104469190613999565b60405180910390f35b34801561045b57600080fd5b5061047660048036038101906104719190612c43565b61152d565b60405161048391906137bc565b60405180910390f35b34801561049857600080fd5b506104b360048036038101906104ae91906130fa565b6115c1565b005b3480156104c157600080fd5b506104dc60048036038101906104d79190612d52565b61178d565b005b3480156104ea57600080fd5b50610505600480360381019061050091906130cd565b61182e565b604051610514939291906139dd565b60405180910390f35b60008073ffffffffffffffffffffffffffffffffffffffff168373ffffffffffffffffffffffffffffffffffffffff16141561058e576040517f08c379a000000000000000000000000000000000000000000000000000000000815260040161058590613879565b60405180910390fd5b60008083815260200190815260200160002060008473ffffffffffffffffffffffffffffffffffffffff1673ffffffffffffffffffffffffffffffffffffffff16815260200190815260200160002054905092915050565b60007fd9b67a26000000000000000000000000000000000000000000000000000000007bffffffffffffffffffffffffffffffffffffffffffffffffffffffff1916827bffffffffffffffffffffffffffffffffffffffffffffffffffffffff191614806106b157507f0e89341c000000000000000000000000000000000000000000000000000000007bffffffffffffffffffffffffffffffffffffffffffffffffffffffff1916827bffffffffffffffffffffffffffffffffffffffffffffffffffffffff1916145b806106c157506106c082611869565b5b9050919050565b6000600360070154905090565b60606003600201600083815260200190815260200160002080546106f890613d64565b80601f016020809104026020016040519081016040528092919081815260200182805461072490613d64565b80156107715780601f1061074657610100808354040283529160200191610771565b820191906000526020600020905b81548152906001019060200180831161075457829003601f168201915b50505050509050919050565b6107856118d3565b73ffffffffffffffffffffffffffffffffffffffff168573ffffffffffffffffffffffffffffffffffffffff1614806107cb57506107ca856107c56118d3565b61152d565b5b61080a576040517f08c379a000000000000000000000000000000000000000000000000000000000815260040161080190613819565b60405180910390fd5b61081785858585856118db565b5050505050565b6000600360060154905090565b600080600090505b845181101561095a5760038001600086838151811061085557610854613e6e565b5b6020026020010151815260200190815260200160002060009054906101000a900473ffffffffffffffffffffffffffffffffffffffff1673ffffffffffffffffffffffffffffffffffffffff163373ffffffffffffffffffffffffffffffffffffffff1614156108fa576040517f08c379a00000000000000000000000000000000000000000000000000000000081526004016108f190613859565b60405180910390fd5b82818151811061090d5761090c613e6e565b5b602002602001015184828151811061092857610927613e6e565b5b602002602001015161093a9190613c2a565b826109459190613bd4565b9150808061095290613dc7565b915050610833565b508034101561099e576040517f08c379a0000000000000000000000000000000000000000000000000000000008152600401610995906138d9565b60405180910390fd5b60005b8451811015610bab57610a496003800160008784815181106109c6576109c5613e6e565b5b6020026020010151815260200190815260200160002060009054906101000a900473ffffffffffffffffffffffffffffffffffffffff1633878481518110610a1157610a10613e6e565b5b6020026020010151878581518110610a2c57610a2b613e6e565b5b602002602001015160405180602001604052806000815250611bfd565b600380016000868381518110610a6257610a61613e6e565b5b6020026020010151815260200190815260200160002060009054906101000a900473ffffffffffffffffffffffffffffffffffffffff1673ffffffffffffffffffffffffffffffffffffffff166108fc858381518110610ac557610ac4613e6e565b5b6020026020010151858481518110610ae057610adf613e6e565b5b6020026020010151610af29190613c2a565b9081150290604051600060405180830381858888f19350505050158015610b1d573d6000803e3d6000fd5b50600060036001016000878481518110610b3a57610b39613e6e565b5b602002602001015181526020019081526020016000209050806002016000815480929190610b6790613d3a565b9190505550600081600201541415610b975760018160040160006101000a81548160ff0219169083151502179055505b508080610ba390613dc7565b9150506109a1565b507fa02c37581ef46e1c9b7a21808779c7efbca4740dbdcc884e1a5eb9e391a1b59533604051610bdb9190613625565b60405180910390a150505050565b60608151835114610c2f576040517f08c379a0000000000000000000000000000000000000000000000000000000008152600401610c2690613939565b60405180910390fd5b6000835167ffffffffffffffff811115610c4c57610c4b613e9d565b5b604051908082528060200260200182016040528015610c7a5781602001602082028036833780820191505090505b50905060005b8451811015610cf757610cc7858281518110610c9f57610c9e613e6e565b5b6020026020010151858381518110610cba57610cb9613e6e565b5b602002602001015161051d565b828281518110610cda57610cd9613e6e565b5b60200260200101818152505080610cf090613dc7565b9050610c80565b508091505092915050565b60036008016000815480929190610d1890613dc7565b9190505550610d3e85600360080154600160405180602001604052806000815250611e99565b836003600201600060036008015481526020019081526020016000209080519060200190610d6d92919061285f565b506000600360000160006003600801548152602001908152602001600020905060036008015481600001819055506003600401600360080154908060018154018082558091505060019003906000526020600020016000909190919091505560036006016000815480929190610de290613dc7565b91905055506000845167ffffffffffffffff811115610e0457610e03613e9d565b5b604051908082528060200260200182016040528015610e325781602001602082028036833780820191505090505b50905060005b85518110156111305760036008016000815480929190610e5790613dc7565b919050555060006003600101600060036008015481526020019081526020016000209050836000015481600001819055506003600801548160010181905550858281518110610ea957610ea8613e6e565b5b60200260200101518160020181905550848281518110610ecc57610ecb613e6e565b5b6020026020010151816003018190555060008160040160006101000a81548160ff021916908315150217905550808460020160006003600801548152602001908152602001600020600082015481600001556001820154816001015560028201548160020155600382015481600301556004820160009054906101000a900460ff168160040160006101000a81548160ff021916908315150217905550905050600360080154838381518110610f8557610f84613e6e565b5b6020026020010181815250506003600501600360080154908060018154018082558091505060019003906000526020600020016000909190919091505583600101600360080154908060018154018082558091505060019003906000526020600020016000909190919091505588600380016000600360080154815260200190815260200160002060006101000a81548173ffffffffffffffffffffffffffffffffffffffff021916908373ffffffffffffffffffffffffffffffffffffffff1602179055506003600701600081548092919061106190613dc7565b919050555060405160200161107590613610565b6040516020818303038152906040528051906020012087838151811061109e5761109d613e6e565b5b60200260200101516040516020016110b691906135f9565b604051602081830303815290604052805190602001201461111c578682815181106110e4576110e3613e6e565b5b6020026020010151600360020160006003600801548152602001908152602001600020908051906020019061111a92919061285f565b505b50808061112890613dc7565b915050610e38565b5061114c8782866040518060200160405280600081525061204a565b7f748ff5cfd7b66bdd8e21581c2a864756fe7085378c0003183e579bfafba28325826000015460405161117f9190613999565b60405180910390a150505050505050565b600060036000016000848152602001908152602001600020600201600083815260200190815260200160002060020154905092915050565b6000600360080154905090565b6111e76111e06118d3565b8383612277565b5050565b60006111f7338461051d565b90506001811461123c576040517f08c379a0000000000000000000000000000000000000000000000000000000008152600401611233906138f9565b60405180910390fd5b8160036002016000858152602001908152602001600020908051906020019061126692919061285f565b50505050565b60006003600401828154811061128557611284613e6e565b5b90600052602060002001549050919050565b606080606080600060036000016000878152602001908152602001600020905060008160010180548060200260200160405190810160405280929190818152602001828054801561130757602002820191906000526020600020905b8154815260200190600101908083116112f3575b505050505090506000826001018054905067ffffffffffffffff81111561133157611330613e9d565b5b60405190808252806020026020018201604052801561135f5781602001602082028036833780820191505090505b5090506000836001018054905067ffffffffffffffff81111561138557611384613e9d565b5b6040519080825280602002602001820160405280156113b35781602001602082028036833780820191505090505b5090506000846001018054905067ffffffffffffffff8111156113d9576113d8613e9d565b5b6040519080825280602002602001820160405280156114075781602001602082028036833780820191505090505b50905060005b85600101805490508110156114e95760006003600101600088600101848154811061143b5761143a613e6e565b5b906000526020600020015481526020019081526020016000209050806002015485838151811061146e5761146d613e6e565b5b602002602001018181525050806003015484838151811061149257611491613e6e565b5b6020026020010181815250508060040160009054906101000a900460ff168383815181106114c3576114c2613e6e565b5b6020026020010190151590811515815250505080806114e190613dc7565b91505061140d565b5083838383985098509850985050505050509193509193565b60006003600501828154811061151b5761151a613e6e565b5b90600052602060002001549050919050565b6000600160008473ffffffffffffffffffffffffffffffffffffffff1673ffffffffffffffffffffffffffffffffffffffff16815260200190815260200160002060008373ffffffffffffffffffffffffffffffffffffffff1673ffffffffffffffffffffffffffffffffffffffff16815260200190815260200160002060009054906101000a900460ff16905092915050565b60006003600001600086815260200190815260200160002090506000835167ffffffffffffffff8111156115f8576115f7613e9d565b5b6040519080825280602002602001820160405280156116265781602001602082028036833780820191505090505b50905060005b8451811015611769576003600801600081548092919061164b90613dc7565b91905055506040518060a001604052808460000154815260200183838151811061167857611677613e6e565b5b6020026020010151815260200186838151811061169857611697613e6e565b5b602002602001015181526020018583815181106116b8576116b7613e6e565b5b602002602001015181526020016000151581525083600201600060036008015481526020019081526020016000206000820151816000015560208201518160010155604082015181600201556060820151816003015560808201518160040160006101000a81548160ff02191690831515021790555090505060036008015482828151811061174a57611749613e6e565b5b602002602001018181525050808061176190613dc7565b91505061162c565b506117858582866040518060200160405280600081525061204a565b505050505050565b6117956118d3565b73ffffffffffffffffffffffffffffffffffffffff168573ffffffffffffffffffffffffffffffffffffffff1614806117db57506117da856117d56118d3565b61152d565b5b61181a576040517f08c379a000000000000000000000000000000000000000000000000000000000815260040161181190613819565b60405180910390fd5b6118278585858585611bfd565b5050505050565b600080600080600360010160008681526020019081526020016000209050806000015481600201548260030154935093509350509193909250565b60007f01ffc9a7000000000000000000000000000000000000000000000000000000007bffffffffffffffffffffffffffffffffffffffffffffffffffffffff1916827bffffffffffffffffffffffffffffffffffffffffffffffffffffffff1916149050919050565b600033905090565b815183511461191f576040517f08c379a000000000000000000000000000000000000000000000000000000000815260040161191690613959565b60405180910390fd5b600073ffffffffffffffffffffffffffffffffffffffff168473ffffffffffffffffffffffffffffffffffffffff16141561198f576040517f08c379a000000000000000000000000000000000000000000000000000000000815260040161198690613899565b60405180910390fd5b60006119996118d3565b90506119a98187878787876123e4565b60005b8451811015611b5a5760008582815181106119ca576119c9613e6e565b5b6020026020010151905060008583815181106119e9576119e8613e6e565b5b60200260200101519050600080600084815260200190815260200160002060008b73ffffffffffffffffffffffffffffffffffffffff1673ffffffffffffffffffffffffffffffffffffffff16815260200190815260200160002054905081811015611a8a576040517f08c379a0000000000000000000000000000000000000000000000000000000008152600401611a81906138b9565b60405180910390fd5b81810360008085815260200190815260200160002060008c73ffffffffffffffffffffffffffffffffffffffff1673ffffffffffffffffffffffffffffffffffffffff168152602001908152602001600020819055508160008085815260200190815260200160002060008b73ffffffffffffffffffffffffffffffffffffffff1673ffffffffffffffffffffffffffffffffffffffff1681526020019081526020016000206000828254611b3f9190613bd4565b9250508190555050505080611b5390613dc7565b90506119ac565b508473ffffffffffffffffffffffffffffffffffffffff168673ffffffffffffffffffffffffffffffffffffffff168273ffffffffffffffffffffffffffffffffffffffff167f4a39dc06d4c0dbc64b70af90fd698a233a518aa5d07e595d983b8c0526c8f7fb8787604051611bd1929190613724565b60405180910390a4611be78187878787876123ec565b611bf58187878787876123f4565b505050505050565b600073ffffffffffffffffffffffffffffffffffffffff168473ffffffffffffffffffffffffffffffffffffffff161415611c6d576040517f08c379a0000000000000000000000000000000000000000000000000000000008152600401611c6490613899565b60405180910390fd5b6000611c776118d3565b90506000611c84856125db565b90506000611c91856125db565b9050611ca18389898585896123e4565b600080600088815260200190815260200160002060008a73ffffffffffffffffffffffffffffffffffffffff1673ffffffffffffffffffffffffffffffffffffffff16815260200190815260200160002054905085811015611d38576040517f08c379a0000000000000000000000000000000000000000000000000000000008152600401611d2f906138b9565b60405180910390fd5b85810360008089815260200190815260200160002060008b73ffffffffffffffffffffffffffffffffffffffff1673ffffffffffffffffffffffffffffffffffffffff168152602001908152602001600020819055508560008089815260200190815260200160002060008a73ffffffffffffffffffffffffffffffffffffffff1673ffffffffffffffffffffffffffffffffffffffff1681526020019081526020016000206000828254611ded9190613bd4565b925050819055508773ffffffffffffffffffffffffffffffffffffffff168973ffffffffffffffffffffffffffffffffffffffff168573ffffffffffffffffffffffffffffffffffffffff167fc3d58168c5ae7397731d063d5bbf3d657854427343f4c083240f7aacaa2d0f628a8a604051611e6a9291906139b4565b60405180910390a4611e80848a8a86868a6123ec565b611e8e848a8a8a8a8a612655565b505050505050505050565b600073ffffffffffffffffffffffffffffffffffffffff168473ffffffffffffffffffffffffffffffffffffffff161415611f09576040517f08c379a0000000000000000000000000000000000000000000000000000000008152600401611f0090613979565b60405180910390fd5b6000611f136118d3565b90506000611f20856125db565b90506000611f2d856125db565b9050611f3e836000898585896123e4565b8460008088815260200190815260200160002060008973ffffffffffffffffffffffffffffffffffffffff1673ffffffffffffffffffffffffffffffffffffffff1681526020019081526020016000206000828254611f9d9190613bd4565b925050819055508673ffffffffffffffffffffffffffffffffffffffff16600073ffffffffffffffffffffffffffffffffffffffff168473ffffffffffffffffffffffffffffffffffffffff167fc3d58168c5ae7397731d063d5bbf3d657854427343f4c083240f7aacaa2d0f62898960405161201b9291906139b4565b60405180910390a4612032836000898585896123ec565b61204183600089898989612655565b50505050505050565b600073ffffffffffffffffffffffffffffffffffffffff168473ffffffffffffffffffffffffffffffffffffffff1614156120ba576040517f08c379a00000000000000000000000000000000000000000000000000000000081526004016120b190613979565b60405180910390fd5b81518351146120fe576040517f08c379a00000000000000000000000000000000000000000000000000000000081526004016120f590613959565b60405180910390fd5b60006121086118d3565b9050612119816000878787876123e4565b60005b84518110156121d25783818151811061213857612137613e6e565b5b602002602001015160008087848151811061215657612155613e6e565b5b6020026020010151815260200190815260200160002060008873ffffffffffffffffffffffffffffffffffffffff1673ffffffffffffffffffffffffffffffffffffffff16815260200190815260200160002060008282546121b89190613bd4565b9250508190555080806121ca90613dc7565b91505061211c565b508473ffffffffffffffffffffffffffffffffffffffff16600073ffffffffffffffffffffffffffffffffffffffff168273ffffffffffffffffffffffffffffffffffffffff167f4a39dc06d4c0dbc64b70af90fd698a233a518aa5d07e595d983b8c0526c8f7fb878760405161224a929190613724565b60405180910390a4612261816000878787876123ec565b612270816000878787876123f4565b5050505050565b8173ffffffffffffffffffffffffffffffffffffffff168373ffffffffffffffffffffffffffffffffffffffff1614156122e6576040517f08c379a00000000000000000000000000000000000000000000000000000000081526004016122dd90613919565b60405180910390fd5b80600160008573ffffffffffffffffffffffffffffffffffffffff1673ffffffffffffffffffffffffffffffffffffffff16815260200190815260200160002060008473ffffffffffffffffffffffffffffffffffffffff1673ffffffffffffffffffffffffffffffffffffffff16815260200190815260200160002060006101000a81548160ff0219169083151502179055508173ffffffffffffffffffffffffffffffffffffffff168373ffffffffffffffffffffffffffffffffffffffff167f17307eab39ab6107e8899845ad3d59bd9653f200f220920489ca2b5937696c31836040516123d791906137bc565b60405180910390a3505050565b505050505050565b505050505050565b6124138473ffffffffffffffffffffffffffffffffffffffff1661283c565b156125d3578373ffffffffffffffffffffffffffffffffffffffff1663bc197c8187878686866040518663ffffffff1660e01b8152600401612459959493929190613640565b602060405180830381600087803b15801561247357600080fd5b505af19250505080156124a457506040513d601f19601f820116820180604052508101906124a191906130a0565b60015b61254a576124b0613ecc565b806308c379a0141561250d57506124c56142b9565b806124d0575061250f565b806040517f08c379a000000000000000000000000000000000000000000000000000000000815260040161250491906137d7565b60405180910390fd5b505b6040517f08c379a0000000000000000000000000000000000000000000000000000000008152600401612541906137f9565b60405180910390fd5b63bc197c8160e01b7bffffffffffffffffffffffffffffffffffffffffffffffffffffffff1916817bffffffffffffffffffffffffffffffffffffffffffffffffffffffff1916146125d1576040517f08c379a00000000000000000000000000000000000000000000000000000000081526004016125c890613839565b60405180910390fd5b505b505050505050565b60606000600167ffffffffffffffff8111156125fa576125f9613e9d565b5b6040519080825280602002602001820160405280156126285781602001602082028036833780820191505090505b50905082816000815181106126405761263f613e6e565b5b60200260200101818152505080915050919050565b6126748473ffffffffffffffffffffffffffffffffffffffff1661283c565b15612834578373ffffffffffffffffffffffffffffffffffffffff1663f23a6e6187878686866040518663ffffffff1660e01b81526004016126ba9594939291906136a8565b602060405180830381600087803b1580156126d457600080fd5b505af192505050801561270557506040513d601f19601f8201168201806040525081019061270291906130a0565b60015b6127ab57612711613ecc565b806308c379a0141561276e57506127266142b9565b806127315750612770565b806040517f08c379a000000000000000000000000000000000000000000000000000000000815260040161276591906137d7565b60405180910390fd5b505b6040517f08c379a00000000000000000000000000000000000000000000000000000000081526004016127a2906137f9565b60405180910390fd5b63f23a6e6160e01b7bffffffffffffffffffffffffffffffffffffffffffffffffffffffff1916817bffffffffffffffffffffffffffffffffffffffffffffffffffffffff191614612832576040517f08c379a000000000000000000000000000000000000000000000000000000000815260040161282990613839565b60405180910390fd5b505b505050505050565b6000808273ffffffffffffffffffffffffffffffffffffffff163b119050919050565b82805461286b90613d64565b90600052602060002090601f01602090048101928261288d57600085556128d4565b82601f106128a657805160ff19168380011785556128d4565b828001600101855582156128d4579182015b828111156128d35782518255916020019190600101906128b8565b5b5090506128e191906128e5565b5090565b5b808211156128fe5760008160009055506001016128e6565b5090565b600061291561291084613a39565b613a14565b9050808382526020820190508285602086028201111561293857612937613ef3565b5b60005b85811015612968578161294e8882612af4565b84526020840193506020830192505060018101905061293b565b5050509392505050565b600061298561298084613a65565b613a14565b905080838252602082019050828560208602820111156129a8576129a7613ef3565b5b60005b858110156129f657813567ffffffffffffffff8111156129ce576129cd613eee565b5b8086016129db8982612c00565b855260208501945060208401935050506001810190506129ab565b5050509392505050565b6000612a13612a0e84613a91565b613a14565b90508083825260208201905082856020860282011115612a3657612a35613ef3565b5b60005b85811015612a665781612a4c8882612c2e565b845260208401935060208301925050600181019050612a39565b5050509392505050565b6000612a83612a7e84613abd565b613a14565b905082815260208101848484011115612a9f57612a9e613ef8565b5b612aaa848285613cf8565b509392505050565b6000612ac5612ac084613aee565b613a14565b905082815260208101848484011115612ae157612ae0613ef8565b5b612aec848285613cf8565b509392505050565b600081359050612b038161434f565b92915050565b600082601f830112612b1e57612b1d613eee565b5b8135612b2e848260208601612902565b91505092915050565b600082601f830112612b4c57612b4b613eee565b5b8135612b5c848260208601612972565b91505092915050565b600082601f830112612b7a57612b79613eee565b5b8135612b8a848260208601612a00565b91505092915050565b600081359050612ba281614366565b92915050565b600081359050612bb78161437d565b92915050565b600081519050612bcc8161437d565b92915050565b600082601f830112612be757612be6613eee565b5b8135612bf7848260208601612a70565b91505092915050565b600082601f830112612c1557612c14613eee565b5b8135612c25848260208601612ab2565b91505092915050565b600081359050612c3d81614394565b92915050565b60008060408385031215612c5a57612c59613f02565b5b6000612c6885828601612af4565b9250506020612c7985828601612af4565b9150509250929050565b600080600080600060a08688031215612c9f57612c9e613f02565b5b6000612cad88828901612af4565b9550506020612cbe88828901612af4565b945050604086013567ffffffffffffffff811115612cdf57612cde613efd565b5b612ceb88828901612b65565b935050606086013567ffffffffffffffff811115612d0c57612d0b613efd565b5b612d1888828901612b65565b925050608086013567ffffffffffffffff811115612d3957612d38613efd565b5b612d4588828901612bd2565b9150509295509295909350565b600080600080600060a08688031215612d6e57612d6d613f02565b5b6000612d7c88828901612af4565b9550506020612d8d88828901612af4565b9450506040612d9e88828901612c2e565b9350506060612daf88828901612c2e565b925050608086013567ffffffffffffffff811115612dd057612dcf613efd565b5b612ddc88828901612bd2565b9150509295509295909350565b60008060408385031215612e0057612dff613f02565b5b6000612e0e85828601612af4565b9250506020612e1f85828601612b93565b9150509250929050565b600080600080600060a08688031215612e4557612e44613f02565b5b6000612e5388828901612af4565b955050602086013567ffffffffffffffff811115612e7457612e73613efd565b5b612e8088828901612c00565b945050604086013567ffffffffffffffff811115612ea157612ea0613efd565b5b612ead88828901612b37565b935050606086013567ffffffffffffffff811115612ece57612ecd613efd565b5b612eda88828901612b65565b925050608086013567ffffffffffffffff811115612efb57612efa613efd565b5b612f0788828901612b65565b9150509295509295909350565b60008060408385031215612f2b57612f2a613f02565b5b6000612f3985828601612af4565b9250506020612f4a85828601612c2e565b9150509250929050565b60008060408385031215612f6b57612f6a613f02565b5b600083013567ffffffffffffffff811115612f8957612f88613efd565b5b612f9585828601612b09565b925050602083013567ffffffffffffffff811115612fb657612fb5613efd565b5b612fc285828601612b65565b9150509250929050565b600080600060608486031215612fe557612fe4613f02565b5b600084013567ffffffffffffffff81111561300357613002613efd565b5b61300f86828701612b65565b935050602084013567ffffffffffffffff8111156130305761302f613efd565b5b61303c86828701612b65565b925050604084013567ffffffffffffffff81111561305d5761305c613efd565b5b61306986828701612b65565b9150509250925092565b60006020828403121561308957613088613f02565b5b600061309784828501612ba8565b91505092915050565b6000602082840312156130b6576130b5613f02565b5b60006130c484828501612bbd565b91505092915050565b6000602082840312156130e3576130e2613f02565b5b60006130f184828501612c2e565b91505092915050565b6000806000806080858703121561311457613113613f02565b5b600061312287828801612c2e565b945050602061313387828801612af4565b935050604085013567ffffffffffffffff81111561315457613153613efd565b5b61316087828801612b65565b925050606085013567ffffffffffffffff81111561318157613180613efd565b5b61318d87828801612b65565b91505092959194509250565b600080604083850312156131b0576131af613f02565b5b60006131be85828601612c2e565b925050602083013567ffffffffffffffff8111156131df576131de613efd565b5b6131eb85828601612c00565b9150509250929050565b6000806040838503121561320c5761320b613f02565b5b600061321a85828601612c2e565b925050602061322b85828601612c2e565b9150509250929050565b60006132418383613330565b60208301905092915050565b600061325983836135db565b60208301905092915050565b61326e81613c84565b82525050565b600061327f82613b3f565b6132898185613b85565b935061329483613b1f565b8060005b838110156132c55781516132ac8882613235565b97506132b783613b6b565b925050600181019050613298565b5085935050505092915050565b60006132dd82613b4a565b6132e78185613b96565b93506132f283613b2f565b8060005b8381101561332357815161330a888261324d565b975061331583613b78565b9250506001810190506132f6565b5085935050505092915050565b61333981613c96565b82525050565b61334881613c96565b82525050565b600061335982613b55565b6133638185613ba7565b9350613373818560208601613d07565b61337c81613f07565b840191505092915050565b600061339282613b60565b61339c8185613bb8565b93506133ac818560208601613d07565b6133b581613f07565b840191505092915050565b60006133cb82613b60565b6133d58185613bc9565b93506133e5818560208601613d07565b80840191505092915050565b60006133fe603483613bb8565b915061340982613f25565b604082019050919050565b6000613421602f83613bb8565b915061342c82613f74565b604082019050919050565b6000613444602883613bb8565b915061344f82613fc3565b604082019050919050565b6000613467601683613bb8565b915061347282614012565b602082019050919050565b600061348a602a83613bb8565b91506134958261403b565b604082019050919050565b60006134ad602583613bb8565b91506134b88261408a565b604082019050919050565b60006134d0602a83613bb8565b91506134db826140d9565b604082019050919050565b60006134f3601483613bb8565b91506134fe82614128565b602082019050919050565b6000613516601e83613bb8565b915061352182614151565b602082019050919050565b6000613539600083613bc9565b91506135448261417a565b600082019050919050565b600061355c602983613bb8565b91506135678261417d565b604082019050919050565b600061357f602983613bb8565b915061358a826141cc565b604082019050919050565b60006135a2602883613bb8565b91506135ad8261421b565b604082019050919050565b60006135c5602183613bb8565b91506135d08261426a565b604082019050919050565b6135e481613cee565b82525050565b6135f381613cee565b82525050565b600061360582846133c0565b915081905092915050565b600061361b8261352c565b9150819050919050565b600060208201905061363a6000830184613265565b92915050565b600060a0820190506136556000830188613265565b6136626020830187613265565b818103604083015261367481866132d2565b9050818103606083015261368881856132d2565b9050818103608083015261369c818461334e565b90509695505050505050565b600060a0820190506136bd6000830188613265565b6136ca6020830187613265565b6136d760408301866135ea565b6136e460608301856135ea565b81810360808301526136f6818461334e565b90509695505050505050565b6000602082019050818103600083015261371c81846132d2565b905092915050565b6000604082019050818103600083015261373e81856132d2565b9050818103602083015261375281846132d2565b90509392505050565b6000608082019050818103600083015261377581876132d2565b9050818103602083015261378981866132d2565b9050818103604083015261379d81856132d2565b905081810360608301526137b18184613274565b905095945050505050565b60006020820190506137d1600083018461333f565b92915050565b600060208201905081810360008301526137f18184613387565b905092915050565b60006020820190508181036000830152613812816133f1565b9050919050565b6000602082019050818103600083015261383281613414565b9050919050565b6000602082019050818103600083015261385281613437565b9050919050565b600060208201905081810360008301526138728161345a565b9050919050565b600060208201905081810360008301526138928161347d565b9050919050565b600060208201905081810360008301526138b2816134a0565b9050919050565b600060208201905081810360008301526138d2816134c3565b9050919050565b600060208201905081810360008301526138f2816134e6565b9050919050565b6000602082019050818103600083015261391281613509565b9050919050565b600060208201905081810360008301526139328161354f565b9050919050565b6000602082019050818103600083015261395281613572565b9050919050565b6000602082019050818103600083015261397281613595565b9050919050565b60006020820190508181036000830152613992816135b8565b9050919050565b60006020820190506139ae60008301846135ea565b92915050565b60006040820190506139c960008301856135ea565b6139d660208301846135ea565b9392505050565b60006060820190506139f260008301866135ea565b6139ff60208301856135ea565b613a0c60408301846135ea565b949350505050565b6000613a1e613a2f565b9050613a2a8282613d96565b919050565b6000604051905090565b600067ffffffffffffffff821115613a5457613a53613e9d565b5b602082029050602081019050919050565b600067ffffffffffffffff821115613a8057613a7f613e9d565b5b602082029050602081019050919050565b600067ffffffffffffffff821115613aac57613aab613e9d565b5b602082029050602081019050919050565b600067ffffffffffffffff821115613ad857613ad7613e9d565b5b613ae182613f07565b9050602081019050919050565b600067ffffffffffffffff821115613b0957613b08613e9d565b5b613b1282613f07565b9050602081019050919050565b6000819050602082019050919050565b6000819050602082019050919050565b600081519050919050565b600081519050919050565b600081519050919050565b600081519050919050565b6000602082019050919050565b6000602082019050919050565b600082825260208201905092915050565b600082825260208201905092915050565b600082825260208201905092915050565b600082825260208201905092915050565b600081905092915050565b6000613bdf82613cee565b9150613bea83613cee565b9250827fffffffffffffffffffffffffffffffffffffffffffffffffffffffffffffffff03821115613c1f57613c1e613e10565b5b828201905092915050565b6000613c3582613cee565b9150613c4083613cee565b9250817fffffffffffffffffffffffffffffffffffffffffffffffffffffffffffffffff0483118215151615613c7957613c78613e10565b5b828202905092915050565b6000613c8f82613cce565b9050919050565b60008115159050919050565b60007fffffffff0000000000000000000000000000000000000000000000000000000082169050919050565b600073ffffffffffffffffffffffffffffffffffffffff82169050919050565b6000819050919050565b82818337600083830152505050565b60005b83811015613d25578082015181840152602081019050613d0a565b83811115613d34576000848401525b50505050565b6000613d4582613cee565b91506000821415613d5957613d58613e10565b5b600182039050919050565b60006002820490506001821680613d7c57607f821691505b60208210811415613d9057613d8f613e3f565b5b50919050565b613d9f82613f07565b810181811067ffffffffffffffff82111715613dbe57613dbd613e9d565b5b80604052505050565b6000613dd282613cee565b91507fffffffffffffffffffffffffffffffffffffffffffffffffffffffffffffffff821415613e0557613e04613e10565b5b600182019050919050565b7f4e487b7100000000000000000000000000000000000000000000000000000000600052601160045260246000fd5b7f4e487b7100000000000000000000000000000000000000000000000000000000600052602260045260246000fd5b7f4e487b7100000000000000000000000000000000000000000000000000000000600052603260045260246000fd5b7f4e487b7100000000000000000000000000000000000000000000000000000000600052604160045260246000fd5b600060033d1115613eeb5760046000803e613ee8600051613f18565b90505b90565b600080fd5b600080fd5b600080fd5b600080fd5b600080fd5b6000601f19601f8301169050919050565b60008160e01c9050919050565b7f455243313135353a207472616e7366657220746f206e6f6e204552433131353560008201527f526563656976657220696d706c656d656e746572000000000000000000000000602082015250565b7f455243313135353a2063616c6c6572206973206e6f7420746f6b656e206f776e60008201527f6572206e6f7220617070726f7665640000000000000000000000000000000000602082015250565b7f455243313135353a204552433131353552656365697665722072656a6563746560008201527f6420746f6b656e73000000000000000000000000000000000000000000000000602082015250565b7f53656c6c65722063616e6e6f7420626520627579657200000000000000000000600082015250565b7f455243313135353a2061646472657373207a65726f206973206e6f742061207660008201527f616c6964206f776e657200000000000000000000000000000000000000000000602082015250565b7f455243313135353a207472616e7366657220746f20746865207a65726f20616460008201527f6472657373000000000000000000000000000000000000000000000000000000602082015250565b7f455243313135353a20696e73756666696369656e742062616c616e636520666f60008201527f72207472616e7366657200000000000000000000000000000000000000000000602082015250565b7f496e73756666696369656e74207061796d656e74000000000000000000000000600082015250565b7f4f6e6c79206f776e65722063616e2065646974206576656e7420696e666f0000600082015250565b50565b7f455243313135353a2073657474696e6720617070726f76616c2073746174757360008201527f20666f722073656c660000000000000000000000000000000000000000000000602082015250565b7f455243313135353a206163636f756e747320616e6420696473206c656e67746860008201527f206d69736d617463680000000000000000000000000000000000000000000000602082015250565b7f455243313135353a2069647320616e6420616d6f756e7473206c656e6774682060008201527f6d69736d61746368000000000000000000000000000000000000000000000000602082015250565b7f455243313135353a206d696e7420746f20746865207a65726f2061646472657360008201527f7300000000000000000000000000000000000000000000000000000000000000602082015250565b600060443d10156142c95761434c565b6142d1613a2f565b60043d036004823e80513d602482011167ffffffffffffffff821117156142f957505061434c565b808201805167ffffffffffffffff811115614317575050505061434c565b80602083010160043d03850181111561433457505050505061434c565b61434382602001850186613d96565b82955050505050505b90565b61435881613c84565b811461436357600080fd5b50565b61436f81613c96565b811461437a57600080fd5b50565b61438681613ca2565b811461439157600080fd5b50565b61439d81613cee565b81146143a857600080fd5b5056fea26469706673582212203636785d619aae0491b70d5e0feecad298d0038ed437e59794e3e8f23899074164736f6c6343000806003368747470733a2f2f67616d652e6578616d706c652f6170692f6974656d2f7b69647d2e6a736f6e",
  "linkReferences": {},
  "deployedLinkReferences": {}
}